:020000040800F2
:10000000005000208910000811100008131000088B
:100010001510000817100008191000080000000053
:100020000000000000000000000000001B1000089D
:100030001D100008000000001F100008211000081B
:10004000D1100008D1100008D1100008D11000080C
:10005000D1100008D1100008D1100008D1100008FC
:10006000D1100008D1100008D1100008D1100008EC
:10007000D1100008D1100008D1100008D1100008DC
:10008000D1100008D1100008D1100008D1100008CC
:10009000D1100008D1100008D1100008D1100008BC
:1000A000D1100008D1100008D1100008D1100008AC
:1000B000D1100008D1100008D1100008D11000089C
:1000C000D1100008D1100008D1100008D11000088C
:1000D000D11000082510000831100008D1100008C8
:1000E000D1100008D1100008D11000080000000055
:1000F0000000000000000000000000000000000000
:0C01000000000000000000005FF808F1A3
:10010C0010B5054C237833B9044B13B10448AFF345
:10011C0000800123237010BD0C00002000000000A3
:10012C002C11000808B5034B1BB103490348AFF36E
:10013C00008008BD00000000100000202C110008F9
:10014C0038B50E4B054618784FF47A73B3FBF0F3C1
:10015C000B4A1068B0FBF3F000F08EF8044658B967
:10016C000F2D09D8024629464FF0FF3000F042F817
:10017C00044B20461D6038BD012038BD0000002016
:10018C000800002004000020074A08B5136803206B
:10019C0043F01003136000F01BF80020FFF7D0FFB2
:1001AC0000F096FE002008BD00200240034A044BDC
:1001BC0011681B780B441360704700BF28000020A7
:1001CC0000000020014B1868704700BF2800002079
:1001DC00074A0002D36800F4E06023F4E0631B04D8
:1001EC001B0C43F0BF6343F400330343D3607047ED
:1001FC0000ED00E0174B30B5DC68C4F30224C4F109
:10020C000703251D042B28BF0423062D4FF00105E1
:10021C0098BF002405FA03F303F1FF3388BF033CB6
:10022C001940A14005FA04F4013C2240002842EA9E
:10023C0001024FEA0212A9BF00F16040064BD2B294
:10024C0000F56140BBBF00F00F00D2B280F8002374
:10025C001A5430BD00ED00E014ED00E0002808DB7E
:10026C000123420900F01F0003FA00F0014B43F890
:10027C002200704700E100E00138B0F1807F0AD223
:10028C00F021064B064A586082F823100020072202
:10029C0098601A6070470120704700BF10E000E0C2
:1002AC0000ED00E090F8213010B5022B03D00423B0
:1002BC008363012010BD03681A6822F00E021A60D5
:1002CC001A6822F001021A60184A93421FD01432A5
:1002DC0093421ED0143293421DD0143293421DD03F
:1002EC00143293421DD0143293420CBF4FF480133E
:1002FC004FF080730E4A00245360012380F82130A4
:10030C00436B80F820407BB19847204610BD0123F9
:10031C00F0E71023EEE74FF48073EBE74FF48053D4
:10032C00E8E74FF48033E5E7184610BD08000240BB
:10033C00000002402DE9F74F00242646664BDFF8FB
:10034C00A8E1DFF8A8C10A6832FA06F502D103B0B9
:10035C00BDE8F08F4FF0010808FA06F802EA08022F
:10036C0090457FD14D68122D00F0AA8000F2838059
:10037C00022D00F0A28077D8002D00F08980012D8D
:10038C0000F099804FF00F09FF2A93BF824606F1C7
:10039C008045083DD0F800B092BFB500D0F804B04D
:1003AC00AD0009FA05F82BEA080804FA05F588BF30
:1003BC0000F1040A48EA0505CAF80050D1F804A077
:1003CC001AF0805F4ED0454D444FAD6926F00308BE
:1003DC0045F00105BD61BD6908F1804805F00105D6
:1003EC00019508F5803806F0030B019D4FEA8B0B45
:1003FC00D8F8085009FA0BF925EA0909384DA84232
:10040C0063D005F58065A84261D005F58065A842EA
:10041C005FD005F58065A8420CBF0325042505FABD
:10042C000BF545EA0905C8F808501D681AF4803F19
:10043C0014BF154395431D605D681AF4003F14BF4B
:10044C00154395435D609D681AF4801F14BF1543D6
:10045C0095439D60DD681AF4001F14BF2A4325EAFA
:10046C000202DA6001366EE7032D22D0112D89D1FC
:10047C00CC68043486E71B4FBD4209D012D8DFF894
:10048C0070904D4504D009F580394D457FF47AAF15
:10049C008C68C4B1012C0CBFC0F81080C0F814805B
:1004AC0008246FE77545F3D06545F1D0DFF844902B
:1004BC00EBE7002466E7CC6864E7CC68083461E7B6
:1004CC00CC680C345EE704245CE70025A7E7012523
:1004DC00A5E70225A3E700BF00040140001002407D
:1004EC000008014000002110000031100000321003
:1004FC0000001110000022100AB1016170470904BC
:10050C00FBE700002DE9F341054608B901203CE06A
:10051C000368DB0710D42B689F075DD42B68190781
:10052C0000F194802B685A0700F1BE80E86900281E
:10053C0040F02C81002028E08F4C636803F00C0302
:10054C00042B07D0636803F00C03082B09D16368F4
:10055C00DE0306D523689C03DDD56B68002BDAD14E
:10056C00D4E76B68B3F5803F12D1236843F4803332
:10057C002360FFF727FE064623689803CBD4FFF7CA
:10058C0021FE801B6428F7D9032002B0BDE8F0815E
:10059C009BB9236823F480332360236823F48023DE
:1005AC002360FFF70FFE064623689903B3D5FFF7C8
:1005BC0009FE801B6428F7D9E6E7B3F5A02F236862
:1005CC0003D143F480232360CFE723F480332360EB
:1005DC00236823F48023CBE7674C636813F00C0F7C
:1005EC0007D0636803F00C03082B10D16368DA039F
:1005FC000DD423689B0702D52B69012B86D1236868
:10060C006A6923F0F80343EAC203236086E72A6988
:10061C005A4B6AB101221A60FFF7D4FD06462368D3
:10062C009F07ECD4FFF7CEFD801B0228F7D9ABE770
:10063C001A60FFF7C7FD0646236898077FF56EAF73
:10064C00FFF7C0FD801B0228F6D99DE7AA694A4C2A
:10065C004B4BDAB101221A60FFF7B4FD0646636A10
:10066C009B070DD54FF4FA52464B1B68B3FBF2F3C4
:10067C00019300BF019B5A1E0192002BF9D151E747
:10068C00FFF7A0FD801B0228E9D97DE71A60FFF770
:10069C0099FD0646636A9F077FF544AFFFF792FD0D
:1006AC00801B0228F6D96FE7334CE369D80024D4B9
:1006BC000127E36943F08053E361E36903F080535E
:1006CC000093009B304E3368D90518D5EB68012B8D
:1006DC0026D1236A43F001032362FFF773FD41F235
:1006EC0088368046236A9B073FD5002F3FF41EAF08
:1006FC00E36923F08053E36118E70027E2E73368EE
:10070C0043F480733360FFF75DFD80463368DA0590
:10071C00DCD4FFF757FDA0EB08006428F6D933E7CB
:10072C00ABB9236A41F2883823F001032362236AB0
:10073C0023F004032362FFF745FD0646236A98075E
:10074C00D3D5FFF73FFD801B4045F7D91CE7052BA0
:10075C00236A03D143F004032362BAE723F00103B5
:10076C002362236A23F00403B6E7FFF72BFDA0EB0B
:10077C000800B042B6D907E7001002400000424220
:10078C008004424208000020007000402A4B5A6846
:10079C001C4602F00C02082A3DD00023274E0228EA
:1007AC0033602BD1FFF70EFD0746236899011FD448
:1007BC002B6AB3F5803F05D16268A96822F4003238
:1007CC000A436260696A62680B4322F47412134331
:1007DC00636001233360FFF7F5FC054623689A013B
:1007EC003FF5A8AEFFF7EEFC401B0228F6D9CBE68E
:1007FC00FFF7E8FCC01B0228D7D9C5E6FFF7E2FCDF
:10080C00054623689B017FF595AEFFF7DBFC401B8B
:10081C000228F6D9B8E601283FF4B7AE58682B6A1F
:10082C0000F480329A427FF471AE6B6A00F470105F
:10083C00C01A18BF0120A8E6001002406000424216
:10084C0030B5194B87B002AC03F11005224618687D
:10085C005968083303C2AB421446F7D101238DF813
:10086C000430022311498DF805304B6803F00C025B
:10087C00082A17D1C3F3834206A80244DB0312F8FB
:10088C00102C0CD54B680A48C3F34043504306AABE
:10089C00134413F8143CB0FBF3F007B030BD05481B
:1008AC005043FAE70248F8E74411000800100240F0
:1008BC0000127A0000093D002DE9F0410D46044676
:1008CC0010B90120BDE8F081454A136803F0070315
:1008DC008B4229D321688E0731D4CA0744D4404AAD
:1008EC00136803F007039D4267D322683D4D12F055
:1008FC00040F6ED1130706D56B68226923F460537D
:10090C0043EAC2036B60FFF79BFF6B68364AC3F385
:10091C000313D35CD840354B1860354B1868FFF780
:10092C000FFC0020BDE8F081136823F007030B4394
:10093C001360136803F007039942C2D1CAE7294B2D
:10094C0011F0040F1EBF5A6842F4E0625A600807A7
:10095C0042BF5A6842F460525A605A68A06822F04A
:10096C00F00202435A60B8E762681E4E012A3368EF
:10097C001BD113F4003FA4D0736841F2883823F0E4
:10098C00030313437360FFF71DFC0746736862682B
:10099C0003F00C03B3EB820FA1D0FFF713FCC01BC9
:1009AC004045F3D90320BDE8F081022A02D113F0AF
:1009BC00007FE0E713F0020FDDE7136823F0070375
:1009CC002B431360136803F007039D427FF479AF48
:1009DC008BE76B68E16823F4E0630B436B6089E79A
:1009EC0000200240001002405411000808000020B2
:1009FC0004000020044B054A5B68C3F30223D35C5C
:100A0C00034A1068D8407047001002406411000877
:100A1C0008000020044B054A5B68C3F3C223D35C77
:100A2C00034A1068D8407047001002406411000857
:100A3C00080000200368DA6822F49072DA605A69C0
:100A4C0022F001025A61202380F83A3070470000EE
:100A5C0038B505460368C1681A69192422F4405256
:100A6C000A431A6182680069D9680243686921F4F3
:100A7C00B05121F00C0102430A43DA605A69A969AA
:100A8C0022F440720A435A610D4A934214D1FFF783
:100A9C00C1FF60436C686422A400B0FBF4F0B0FBAF
:100AAC00F2F402FB14031B013233B3FBF2F329689B
:100ABC0003EB04138B6038BDFFF79CFFE9E700BF25
:100ACC000038014010B5044640B390F8393003F0BB
:100ADC00FF021BB980F8382000F01CFA242322688E
:100AEC0084F83930D368204623F40053D360FFF7E1
:100AFC00AFFF236800201A6922F490421A615A69E8
:100B0C0022F02A025A61DA6842F40052DA60202399
:100B1C00E06384F8393084F83A3010BD012010BD00
:100B2C0090F83930202B18D1A9B1A2B190F83830F7
:100B3C00012B12D0C284828400232122016201681D
:100B4C00C36380F83920CA6880F8383042F08002DC
:100B5C00CA6018467047012070470220704790F811
:100B6C003A3010B5222B36D183680169B3F5805F1A
:100B7C000268836A23D15268E9B9C2F3080223F8E8
:100B8C00022B8362C48D013CA4B2C4858CB903686A
:100B9C00DA6822F02002DA60DA6822F48072DA6015
:100BAC005A6922F001025A61202380F83A3000F091
:100BBC006BF9002010BDD2B223F8012BE1E721B96B
:100BCC00591C526881621A70DCE75268591C8162A8
:100BDC0002F07F02F7E7022010BD7047036870B582
:100BEC001A6804461607D9685D6907D196065AD566
:100BFC008D0658D5BDE87040FFF7B1BF15F0010563
:100C0C0002D111F4907F4ED0D30705D5CE0542BF4B
:100C1C00E36B43F00103E363500704D51DB1E36BB1
:100C2C0043F00203E363930704D51DB1E36B43F078
:100C3C000403E363160704D51DB1E36B43F008030B
:100C4C00E363E36B002B66D0950604D5880602D5CA
:100C5C002046FFF784FF236820465D69E26B11078D
:100C6C0002D415F040051AD0FFF7E4FE23685A6948
:100C7C00520610D55A69606B22F040025A6150B18D
:100C8C00254B4363FFF70EFB002844D0606BBDE897
:100C9C007040436B18472046FFF79FFF70BDFFF76E
:100CAC009CFFE56370BD160627D50D0625D594F877
:100CBC003920212A2FD1A268B2F5805F226A17D180
:100CCC001188C1F308015960216979B90232226295
:100CDC00E28C013A92B2E284EAB9DA6822F080023C
:100CEC00DA60DA6842F04002DA6070BD0132EEE799
:100CFC00511C216212785A60EAE750060BD54A065D
:100D0C0009D5DA68204622F04002DA60202384F804
:100D1C00393000F0B7F870BD290D000808B5002374
:100D2C00406AC385C384FFF758FF08BD01224FF406
:100D3C0000410148FFF7E0BB000C014001224FF4D9
:100D4C0080410148FFF7D8BB000C014000B591B0C1
:100D5C002822002106A800F0DBF91422002101A8AA
:100D6C0000F0D6F90223069301230A93102306A858
:100D7C000B93FFF7C7FB00210F2301A801930291EE
:100D8C00039104910591FFF797FD11B05DF804FBF9
:100D9C0000B589B0FFF7F8F9FFF7D8FF1022002152
:100DAC000DEB020000F0B4F92F4B4FF480419A691F
:100DBC002E4842F010029A619A69002402F0100247
:100DCC000192019A9A69012642F004029A619A6989
:100DDC00022502F004020292029A9A6942F0080279
:100DEC009A619B69012203F008030393039BFFF7AD
:100DFC0083FB01224FF400411C48FFF77DFB4FF4AD
:100E0C00804304A91A480493059607950694FFF7A6
:100E1C0091FA4FF40043059607954FF4E1360C25F3
:100E2C0004A9124804930694FFF784FA1148124B54
:100E3C00846080E84800C460046145618461C461D9
:100E4C00FFF740FE0D480E4B846080E84800C460FC
:100E5C00046145618461C461FFF734FEFFF766FFEE
:100E6C00FFF76CFFFEE700BF00100240000C0140D2
:100E7C0000100140300000200038014074000020B8
:100E8C0000440040704700000E4B10B598420446D9
:100E9C0008D1FFF753FFFFF751FF01220A490B4816
:100EAC00FFF73EFE094B9C420AD1FFF73FFFFFF7CD
:100EBC003DFFBDE81040012203490248FFF730BE58
:100ECC0010BD00BF30000020700000207400002016
:100EDC000E4B82B09A6942F001029A619A6902F053
:100EEC0001020092009ADA6942F08052DA61DB6901
:100EFC00074A03F080530193019B536823F0E0638E
:100F0C0043F08063536002B0704700BF0010024092
:100F1C0000000140102210B5044688B00DEB020011
:100F2C00002100F0F5F82368324A934231D1324B5C
:100F3C0004A99A69314842F480429A619A69002462
:100F4C0002F480420092009A9A6942F004029A617B
:100F5C009B6903F004030193019B4FF4007304930A
:100F6C000223059303230793FFF7E4F94FF48063FF
:100F7C0004A92248049305940694FFF7DBF9252075
:100F8C0022462146FFF736F92520FFF767F908B00E
:100F9C0010BD1B4A9342FAD1174B04A9DA691748C2
:100FAC0042F40032DA61DA69002402F4003202926F
:100FBC00029A9A6942F004029A619B6903F0040355
:100FCC000393039B042304930223059303230793A6
:100FDC00FFF7B0F9082304A9084804930594069474
:100FEC00FFF7A8F9262022462146FFF703F9262011
:100FFC00CBE700BF00380140001002400008014060
:10100C00004400407047FEE7FEE7FEE7FEE770474E
:10101C0070477047FFF7CAB80148FFF7DFBD00BF44
:10102C00300000200148FFF7D9BD00BF740000203C
:10103C000F4B1A6842F001021A6059680D4A0A40B7
:10104C005A601A6822F0847222F480321A601A688C
:10105C0022F480221A605A6822F4FE025A604FF47D
:10106C001F029A604FF00062034B9A60704700BFFA
:10107C00001002400000FFF800ED00E0002103E04A
:10108C000B4B5B58435004310A480B4B42189A42A5
:10109C00F6D30A4A02E0002342F8043B084B9A427A
:1010AC00F9D3FFF7C5FF00F00FF8FFF771FE70479B
:1010BC0074110008000000200C0000200C0000201F
:1010CC00B4000020FEE7000070B500250C4E0D4C5E
:1010DC00A41BA410A54209D100F022F800250A4E49
:1010EC000A4CA41BA410A54205D170BD56F825309E
:1010FC0098470135EEE756F8253098470135F2E769
:10110C006C1100086C1100086C11000870110008BB
:10111C0003460244934200D1704703F8011BF9E7E0
:10112C00F8B500BFF8BC08BC9E467047F8B500BFC8
:08113C00F8BC08BC9E46704798
:1011440002030405060708090A0B0C0D0E0F101004
:101154000000000000000000010203040607080963
:08116400000000000102030479
:04116C003101000845
:041170000D01000865
:0C11740001000000100000000024F40046
:040000050800108956
:00000001FF
